{
  "transactions": [
    {
      "hash": "0x2cae52ff4b2222813a19281b795ff035174c7243480c3fccea5f4425758a2ba0",
      "transactionType": "CREATE",
      "contractName": "ImplementationA",
      "contractAddress": "0xd60ea9663a9d546faefbd1ddc15072120a44c9ef",
      "function": null,
      "arguments": null,
      "transaction": {
        "from": "0xa72e562f24515c060f36a2da07e0442899d39d2c",
        "gas": "0x1d13b",
        "value": "0x0",
        "input": "0x6080604052348015600f57600080fd5b5060b180601d6000396000f3fe6080604052348015600f57600080fd5b506004361060325760003560e01c80633fa4f24514603757806355241077146051575b600080fd5b603f60005481565b60405190815260200160405180910390f35b6061605c3660046063565b600055565b005b600060208284031215607457600080fd5b503591905056fea2646970667358221220bc2fd992005118e942833cdd98ef44ddf23f9259136a9e8ffcdbce9cb8b0563864736f6c63430008190033",
        "nonce": "0x9f",
        "chainId": "0x13882"
      },
      "additionalContracts": [],
      "isFixedGasLimit": false
    },
    {
      "hash": "0x34528044529e9fb38b9ddff65d2b2345e69abbb8639c0ba27acfe8687a64d968",
      "transactionType": "CREATE",
      "contractName": "ImplementationB",
      "contractAddress": "0x6cdb8366b2909a516b7aa2f8501514309900e82e",
      "function": null,
      "arguments": null,
      "transaction": {
        "from": "0xa72e562f24515c060f36a2da07e0442899d39d2c",
        "gas": "0x20a4a",
        "value": "0x0",
        "input": "0x6080604052348015600f57600080fd5b5060e58061001e6000396000f3fe6080604052348015600f57600080fd5b506004361060325760003560e01c80633fa4f24514603757806355241077146051575b600080fd5b603f60005481565b60405190815260200160405180910390f35b6060605c3660046071565b6062565b005b606b81600a6089565b60005550565b600060208284031215608257600080fd5b5035919050565b8082018082111560a957634e487b7160e01b600052601160045260246000fd5b9291505056fea26469706673582212203c7027f82985dce6cd0d5c23bc3c5472f67f2a8857ea27856cb8f91935f6aa1964736f6c63430008190033",
        "nonce": "0xa0",
        "chainId": "0x13882"
      },
      "additionalContracts": [],
      "isFixedGasLimit": false
    },
    {
      "hash": "0x8c7715bfa059a37ab2f323c0cb22d3cce5ba614c90498c5271ab6c0a84ed4d9c",
      "transactionType": "CREATE",
      "contractName": "SmallProxy",
      "contractAddress": "0xa7f5d9abb077b618b3d1f7924c9584e1f4124af6",
      "function": null,
      "arguments": null,
      "transaction": {
        "from": "0xa72e562f24515c060f36a2da07e0442899d39d2c",
        "gas": "0x386c6",
        "value": "0x0",
        "input": "0x6080604052348015600f57600080fd5b506102418061001f6000396000f3fe6080604052600436106100385760003560e01c806331fadddf14610049578063d784d4261461006c578063df31349e146100ab5761003f565b3661003f57005b6100476100d8565b005b34801561005557600080fd5b506000546040519081526020015b60405180910390f35b34801561007857600080fd5b50610047610087366004610173565b7f360894a13ba1a3210667c828492db98dca3e2076cc3735a920a3ca505d382bbc55565b3480156100b757600080fd5b506100cb6100c63660046101a3565b61010a565b60405161006391906101bc565b6101086101037f360894a13ba1a3210667c828492db98dca3e2076cc3735a920a3ca505d382bbc5490565b61014f565b565b60608160405160240161011f91815260200190565b60408051601f198184030181529190526020810180516001600160e01b0316635524107760e01b17905292915050565b3660008037600080366000845af43d6000803e80801561016e573d6000f35b3d6000fd5b60006020828403121561018557600080fd5b81356001600160a01b038116811461019c57600080fd5b9392505050565b6000602082840312156101b557600080fd5b5035919050565b60006020808352835180602085015260005b818110156101ea578581018301518582016040015282016101ce565b506000604082860101526040601f19601f830116850101925050509291505056fea264697066735822122035ca72053a32fccd8403da75ba39c2953e5f6138b317a730dd7461e5c877be0864736f6c63430008190033",
        "nonce": "0xa1",
        "chainId": "0x13882"
      },
      "additionalContracts": [],
      "isFixedGasLimit": false
    },
    {
      "hash": "0x782accc83c57ff66c0db8566c0e37ed9dd47ec0a88c2e9f5e24084c70c00e15e",
      "transactionType": "CALL",
      "contractName": "SmallProxy",
      "contractAddress": "0xa7f5d9abb077b618b3d1f7924c9584e1f4124af6",
      "function": "setImplementation(address)",
      "arguments": [
        "0xd60ea9663A9D546faEfbd1dDc15072120a44c9ef"
      ],
      "transaction": {
        "from": "0xa72e562f24515c060f36a2da07e0442899d39d2c",
        "to": "0xa7f5d9abb077b618b3d1f7924c9584e1f4124af6",
        "gas": "0xec43",
        "value": "0x0",
        "input": "0xd784d426000000000000000000000000d60ea9663a9d546faefbd1ddc15072120a44c9ef",
        "nonce": "0xa2",
        "chainId": "0x13882"
      },
      "additionalContracts": [],
      "isFixedGasLimit": false
    },
    {
      "hash": "0xb76699bd30321553f80b192383eeff8d636fc7d80a6a84e9fdcbfe62bee1424d",
      "transactionType": "CALL",
      "contractName": "SmallProxy",
      "contractAddress": "0xa7f5d9abb077b618b3d1f7924c9584e1f4124af6",
      "function": null,
      "arguments": null,
      "transaction": {
        "from": "0xa72e562f24515c060f36a2da07e0442899d39d2c",
        "to": "0xa7f5d9abb077b618b3d1f7924c9584e1f4124af6",
        "gas": "0x1057c",
        "value": "0x0",
        "input": "0x55241077000000000000000000000000000000000000000000000000000000000000000a",
        "nonce": "0xa3",
        "chainId": "0x13882"
      },
      "additionalContracts": [],
      "isFixedGasLimit": false
    },
    {
      "hash": "0xe6d99b25c71c3fb4bfc35a14513aecfaac5c52714cb5cfa78359db2fca9cee1a",
      "transactionType": "CALL",
      "contractName": "SmallProxy",
      "contractAddress": "0xa7f5d9abb077b618b3d1f7924c9584e1f4124af6",
      "function": "setImplementation(address)",
      "arguments": [
        "0x6CDb8366B2909a516B7aA2F8501514309900e82E"
      ],
      "transaction": {
        "from": "0xa72e562f24515c060f36a2da07e0442899d39d2c",
        "to": "0xa7f5d9abb077b618b3d1f7924c9584e1f4124af6",
        "gas": "0x8ff0",
        "value": "0x0",
        "input": "0xd784d4260000000000000000000000006cdb8366b2909a516b7aa2f8501514309900e82e",
        "nonce": "0xa4",
        "chainId": "0x13882"
      },
      "additionalContracts": [],
      "isFixedGasLimit": false
    },
    {
      "hash": "0xb24804b1cfbba3b28e056daff48bb787dd88ca2b8949245576fe631e6db2f52a",
      "transactionType": "CALL",
      "contractName": "SmallProxy",
      "contractAddress": "0xa7f5d9abb077b618b3d1f7924c9584e1f4124af6",
      "function": null,
      "arguments": null,
      "transaction": {
        "from": "0xa72e562f24515c060f36a2da07e0442899d39d2c",
        "to": "0xa7f5d9abb077b618b3d1f7924c9584e1f4124af6",
        "gas": "0xa9b3",
        "value": "0x0",
        "input": "0x55241077000000000000000000000000000000000000000000000000000000000000000a",
        "nonce": "0xa5",
        "chainId": "0x13882"
      },
      "additionalContracts": [],
      "isFixedGasLimit": false
    }
  ],
  "receipts": [
    {
      "status": "0x1",
      "cumulativeGasUsed": "0x2218d",
      "logs": [
        {
          "address": "0x0000000000000000000000000000000000001010",
          "topics": [
            "0x4dfe1bbbcf077ddc3e01291eea2d5c70c2b422b415d95645b9adcfd678cb1d63",
            "0x0000000000000000000000000000000000000000000000000000000000001010",
            "0x000000000000000000000000a72e562f24515c060f36a2da07e0442899d39d2c",
            "0x0000000000000000000000006dc2dd54f24979ec26212794c71afefed722280c"
          ],
          "data": "0x00000000000000000000000000000000000000000000000000133d29b516ca1d000000000000000000000000000000000000000000000004d25591d16b6db71300000000000000000000000000000000000000000000025f1860fdac51a14804000000000000000000000000000000000000000000000004d24254a7b656ecf600000000000000000000000000000000000000000000025f18743ad606b81221",
          "blockHash": "0x7e16fc77c513e727db362a866076bc9d0a7fe43c2d73c9d9b0ac16bd017b86c5",
          "blockNumber": "0x9a53b8",
          "transactionHash": "0x2cae52ff4b2222813a19281b795ff035174c7243480c3fccea5f4425758a2ba0",
          "transactionIndex": "0x1",
          "logIndex": "0x2",
          "removed": false
        }
      ],
      "logsBloom": "0x00000000000000000000000000000000000000000000000000000000000000000000000000000000000000000000000000008000000000000000000000000000000000000000000000000000000000800000000000000000000100080000000000000000000000000000000001000000000000000000000080000000000000020000000000000000000000000040000000000000000000000000000000000000200000000000000000000000000000000000000000000000000000000000004000000000000000000001000000000000000000000000000000100000000000000000000000000000000000000000000000080000000020000000000000100000",
      "type": "0x2",
      "transactionHash": "0x2cae52ff4b2222813a19281b795ff035174c7243480c3fccea5f4425758a2ba0",
      "transactionIndex": "0x1",
      "blockHash": "0x7e16fc77c513e727db362a866076bc9d0a7fe43c2d73c9d9b0ac16bd017b86c5",
      "blockNumber": "0x9a53b8",
      "gasUsed": "0x165ed",
      "effectiveGasPrice": "0xdc2a26f00",
      "from": "0xa72e562f24515c060f36a2da07e0442899d39d2c",
      "to": null,
      "contractAddress": "0xd60ea9663a9d546faefbd1ddc15072120a44c9ef"
    },
    {
      "status": "0x1",
      "cumulativeGasUsed": "0x3b362",
      "logs": [
        {
          "address": "0x0000000000000000000000000000000000001010",
          "topics": [
            "0x4dfe1bbbcf077ddc3e01291eea2d5c70c2b422b415d95645b9adcfd678cb1d63",
            "0x0000000000000000000000000000000000000000000000000000000000001010",
            "0x000000000000000000000000a72e562f24515c060f36a2da07e0442899d39d2c",
            "0x0000000000000000000000006dc2dd54f24979ec26212794c71afefed722280c"
          ],
          "data": "0x0000000000000000000000000000000000000000000000000015995360edcf85000000000000000000000000000000000000000000000004d24254a7b641f41300000000000000000000000000000000000000000000025f18743ad606b81221000000000000000000000000000000000000000000000004d22cbb545554248e00000000000000000000000000000000000000000000025f1889d42967a5e1a6",
          "blockHash": "0x7e16fc77c513e727db362a866076bc9d0a7fe43c2d73c9d9b0ac16bd017b86c5",
          "blockNumber": "0x9a53b8",
          "transactionHash": "0x34528044529e9fb38b9ddff65d2b2345e69abbb8639c0ba27acfe8687a64d968",
          "transactionIndex": "0x2",
          "logIndex": "0x3",
          "removed": false
        }
      ],
      "logsBloom": "0x00000000000000000000000000000000000000000000000000000000000000000000000000000000000000000000000000008000000000000000000000000000000000000000000000000000000000800000000000000000000100080000000000000000000000000000000001000000000000000000000080000000000000020000000000000000000000000040000000000000000000000000000000000000200000000000000000000000000000000000000000000000000000000000004000000000000000000001000000000000000000000000000000100000000000000000000000000000000000000000000000080000000020000000000000100000",
      "type": "0x2",
      "transactionHash": "0x34528044529e9fb38b9ddff65d2b2345e69abbb8639c0ba27acfe8687a64d968",
      "transactionIndex": "0x2",
      "blockHash": "0x7e16fc77c513e727db362a866076bc9d0a7fe43c2d73c9d9b0ac16bd017b86c5",
      "blockNumber": "0x9a53b8",
      "gasUsed": "0x191d5",
      "effectiveGasPrice": "0xdc2a26f00",
      "from": "0xa72e562f24515c060f36a2da07e0442899d39d2c",
      "to": null,
      "contractAddress": "0x6cdb8366b2909a516b7aa2f8501514309900e82e"
    },
    {
      "status": "0x1",
      "cumulativeGasUsed": "0x669f9",
      "logs": [
        {
          "address": "0x0000000000000000000000000000000000001010",
          "topics": [
            "0x4dfe1bbbcf077ddc3e01291eea2d5c70c2b422b415d95645b9adcfd678cb1d63",
            "0x0000000000000000000000000000000000000000000000000000000000001010",
            "0x000000000000000000000000a72e562f24515c060f36a2da07e0442899d39d2c",
            "0x0000000000000000000000006dc2dd54f24979ec26212794c71afefed722280c"
          ],
          "data": "0x000000000000000000000000000000000000000000000000002555c22690c627000000000000000000000000000000000000000000000004d22cbb54553c991300000000000000000000000000000000000000000000025f1889d42967a5e1a6000000000000000000000000000000000000000000000004d20765922eabd2ec00000000000000000000000000000000000000000000025f18af29eb8e36a7cd",
          "blockHash": "0x7e16fc77c513e727db362a866076bc9d0a7fe43c2d73c9d9b0ac16bd017b86c5",
          "blockNumber": "0x9a53b8",
          "transactionHash": "0x8c7715bfa059a37ab2f323c0cb22d3cce5ba614c90498c5271ab6c0a84ed4d9c",
          "transactionIndex": "0x3",
          "logIndex": "0x4",
          "removed": false
        }
      ],
      "logsBloom": "0x00000000000000000000000000000000000000000000000000000000000000000000000000000000000000000000000000008000000000000000000000000000000000000000000000000000000000800000000000000000000100080000000000000000000000000000000001000000000000000000000080000000000000020000000000000000000000000040000000000000000000000000000000000000200000000000000000000000000000000000000000000000000000000000004000000000000000000001000000000000000000000000000000100000000000000000000000000000000000000000000000080000000020000000000000100000",
      "type": "0x2",
      "transactionHash": "0x8c7715bfa059a37ab2f323c0cb22d3cce5ba614c90498c5271ab6c0a84ed4d9c",
      "transactionIndex": "0x3",
      "blockHash": "0x7e16fc77c513e727db362a866076bc9d0a7fe43c2d73c9d9b0ac16bd017b86c5",
      "blockNumber": "0x9a53b8",
      "gasUsed": "0x2b697",
      "effectiveGasPrice": "0xdc2a26f00",
      "from": "0xa72e562f24515c060f36a2da07e0442899d39d2c",
      "to": null,
      "contractAddress": "0xa7f5d9abb077b618b3d1f7924c9584e1f4124af6"
    },
    {
      "status": "0x1",
      "cumulativeGasUsed": "0x71507",
      "logs": [
        {
          "address": "0x0000000000000000000000000000000000001010",
          "topics": [
            "0x4dfe1bbbcf077ddc3e01291eea2d5c70c2b422b415d95645b9adcfd678cb1d63",
            "0x0000000000000000000000000000000000000000000000000000000000001010",
            "0x000000000000000000000000a72e562f24515c060f36a2da07e0442899d39d2c",
            "0x0000000000000000000000006dc2dd54f24979ec26212794c71afefed722280c"
          ],
          "data": "0x000000000000000000000000000000000000000000000000000931c324fd0c2e000000000000000000000000000000000000000000000004d20765922e83201300000000000000000000000000000000000000000000025f18af29eb8e36a7cd000000000000000000000000000000000000000000000004d1fe33cf098613e500000000000000000000000000000000000000000000025f18b85baeb333b3fb",
          "blockHash": "0x7e16fc77c513e727db362a866076bc9d0a7fe43c2d73c9d9b0ac16bd017b86c5",
          "blockNumber": "0x9a53b8",
          "transactionHash": "0x782accc83c57ff66c0db8566c0e37ed9dd47ec0a88c2e9f5e24084c70c00e15e",
          "transactionIndex": "0x4",
          "logIndex": "0x5",
          "removed": false
        }
      ],
      "logsBloom": "0x00000000000000000000000000000000000000000000000000000000000000000000000000000000000000000000000000008000000000000000000000000000000000000000000000000000000000800000000000000000000100080000000000000000000000000000000001000000000000000000000080000000000000020000000000000000000000000040000000000000000000000000000000000000200000000000000000000000000000000000000000000000000000000000004000000000000000000001000000000000000000000000000000100000000000000000000000000000000000000000000000080000000020000000000000100000",
      "type": "0x2",
      "transactionHash": "0x782accc83c57ff66c0db8566c0e37ed9dd47ec0a88c2e9f5e24084c70c00e15e",
      "transactionIndex": "0x4",
      "blockHash": "0x7e16fc77c513e727db362a866076bc9d0a7fe43c2d73c9d9b0ac16bd017b86c5",
      "blockNumber": "0x9a53b8",
      "gasUsed": "0xab0e",
      "effectiveGasPrice": "0xdc2a26f00",
      "from": "0xa72e562f24515c060f36a2da07e0442899d39d2c",
      "to": "0xa7f5d9abb077b618b3d1f7924c9584e1f4124af6",
      "contractAddress": null
    },
    {
      "status": "0x1",
      "cumulativeGasUsed": "0x7d257",
      "logs": [
        {
          "address": "0x0000000000000000000000000000000000001010",
          "topics": [
            "0x4dfe1bbbcf077ddc3e01291eea2d5c70c2b422b415d95645b9adcfd678cb1d63",
            "0x0000000000000000000000000000000000000000000000000000000000001010",
            "0x000000000000000000000000a72e562f24515c060f36a2da07e0442899d39d2c",
            "0x0000000000000000000000006dc2dd54f24979ec26212794c71afefed722280c"
          ],
          "data": "0x000000000000000000000000000000000000000000000000000a2cfebeaa9850000000000000000000000000000000000000000000000004d1fe33cf097c0e1300000000000000000000000000000000000000000000025f18b85baeb333b3fb000000000000000000000000000000000000000000000004d1f406d04ad175c300000000000000000000000000000000000000000000025f18c288ad71de4c4b",
          "blockHash": "0x7e16fc77c513e727db362a866076bc9d0a7fe43c2d73c9d9b0ac16bd017b86c5",
          "blockNumber": "0x9a53b8",
          "transactionHash": "0xb76699bd30321553f80b192383eeff8d636fc7d80a6a84e9fdcbfe62bee1424d",
          "transactionIndex": "0x5",
          "logIndex": "0x6",
          "removed": false
        }
      ],
      "logsBloom": "0x00000000000000000000000000000000000000000000000000000000000000000000000000000000000000000000000000008000000000000000000000000000000000000000000000000000000000800000000000000000000100080000000000000000000000000000000001000000000000000000000080000000000000020000000000000000000000000040000000000000000000000000000000000000200000000000000000000000000000000000000000000000000000000000004000000000000000000001000000000000000000000000000000100000000000000000000000000000000000000000000000080000000020000000000000100000",
      "type": "0x2",
      "transactionHash": "0xb76699bd30321553f80b192383eeff8d636fc7d80a6a84e9fdcbfe62bee1424d",
      "transactionIndex": "0x5",
      "blockHash": "0x7e16fc77c513e727db362a866076bc9d0a7fe43c2d73c9d9b0ac16bd017b86c5",
      "blockNumber": "0x9a53b8",
      "gasUsed": "0xbd50",
      "effectiveGasPrice": "0xdc2a26f00",
      "from": "0xa72e562f24515c060f36a2da07e0442899d39d2c",
      "to": "0xa7f5d9abb077b618b3d1f7924c9584e1f4124af6",
      "contractAddress": null
    },
    {
      "status": "0x1",
      "cumulativeGasUsed": "0x83a8d",
      "logs": [
        {
          "address": "0x0000000000000000000000000000000000001010",
          "topics": [
            "0x4dfe1bbbcf077ddc3e01291eea2d5c70c2b422b415d95645b9adcfd678cb1d63",
            "0x0000000000000000000000000000000000000000000000000000000000001010",
            "0x000000000000000000000000a72e562f24515c060f36a2da07e0442899d39d2c",
            "0x0000000000000000000000006dc2dd54f24979ec26212794c71afefed722280c"
          ],
          "data": "0x000000000000000000000000000000000000000000000000000599f90b554ed6000000000000000000000000000000000000000000000004d1f406d04ac65e1300000000000000000000000000000000000000000000025f18c288ad71de4c4b000000000000000000000000000000000000000000000004d1ee6cd73f710f3d00000000000000000000000000000000000000000000025f18c822a67d339b21",
          "blockHash": "0x7e16fc77c513e727db362a866076bc9d0a7fe43c2d73c9d9b0ac16bd017b86c5",
          "blockNumber": "0x9a53b8",
          "transactionHash": "0xe6d99b25c71c3fb4bfc35a14513aecfaac5c52714cb5cfa78359db2fca9cee1a",
          "transactionIndex": "0x6",
          "logIndex": "0x7",
          "removed": false
        }
      ],
      "logsBloom": "0x00000000000000000000000000000000000000000000000000000000000000000000000000000000000000000000000000008000000000000000000000000000000000000000000000000000000000800000000000000000000100080000000000000000000000000000000001000000000000000000000080000000000000020000000000000000000000000040000000000000000000000000000000000000200000000000000000000000000000000000000000000000000000000000004000000000000000000001000000000000000000000000000000100000000000000000000000000000000000000000000000080000000020000000000000100000",
      "type": "0x2",
      "transactionHash": "0xe6d99b25c71c3fb4bfc35a14513aecfaac5c52714cb5cfa78359db2fca9cee1a",
      "transactionIndex": "0x6",
      "blockHash": "0x7e16fc77c513e727db362a866076bc9d0a7fe43c2d73c9d9b0ac16bd017b86c5",
      "blockNumber": "0x9a53b8",
      "gasUsed": "0x6836",
      "effectiveGasPrice": "0xdc2a26f00",
      "from": "0xa72e562f24515c060f36a2da07e0442899d39d2c",
      "to": "0xa7f5d9abb077b618b3d1f7924c9584e1f4124af6",
      "contractAddress": null
    },
    {
      "status": "0x1",
      "cumulativeGasUsed": "0x8b56a",
      "logs": [
        {
          "address": "0x0000000000000000000000000000000000001010",
          "topics": [
            "0x4dfe1bbbcf077ddc3e01291eea2d5c70c2b422b415d95645b9adcfd678cb1d63",
            "0x0000000000000000000000000000000000000000000000000000000000001010",
            "0x000000000000000000000000a72e562f24515c060f36a2da07e0442899d39d2c",
            "0x0000000000000000000000006dc2dd54f24979ec26212794c71afefed722280c"
          ],
          "data": "0x00000000000000000000000000000000000000000000000000069aa26f18a00d000000000000000000000000000000000000000000000004d1ee6cd73f6af41300000000000000000000000000000000000000000000025f18c822a67d339b21000000000000000000000000000000000000000000000004d1e7d234d052540600000000000000000000000000000000000000000000025f18cebd48ec4c3b2e",
          "blockHash": "0x7e16fc77c513e727db362a866076bc9d0a7fe43c2d73c9d9b0ac16bd017b86c5",
          "blockNumber": "0x9a53b8",
          "transactionHash": "0xb24804b1cfbba3b28e056daff48bb787dd88ca2b8949245576fe631e6db2f52a",
          "transactionIndex": "0x7",
          "logIndex": "0x8",
          "removed": false
        }
      ],
      "logsBloom": "0x00000000000000000000000000000000000000000000000000000000000000000000000000000000000000000000000000008000000000000000000000000000000000000000000000000000000000800000000000000000000100080000000000000000000000000000000001000000000000000000000080000000000000020000000000000000000000000040000000000000000000000000000000000000200000000000000000000000000000000000000000000000000000000000004000000000000000000001000000000000000000000000000000100000000000000000000000000000000000000000000000080000000020000000000000100000",
      "type": "0x2",
      "transactionHash": "0xb24804b1cfbba3b28e056daff48bb787dd88ca2b8949245576fe631e6db2f52a",
      "transactionIndex": "0x7",
      "blockHash": "0x7e16fc77c513e727db362a866076bc9d0a7fe43c2d73c9d9b0ac16bd017b86c5",
      "blockNumber": "0x9a53b8",
      "gasUsed": "0x7add",
      "effectiveGasPrice": "0xdc2a26f00",
      "from": "0xa72e562f24515c060f36a2da07e0442899d39d2c",
      "to": "0xa7f5d9abb077b618b3d1f7924c9584e1f4124af6",
      "contractAddress": null
    }
  ],
  "libraries": [],
  "pending": [],
  "returns": {},
  "timestamp": 1722336027,
  "chain": 80002,
  "commit": "0e9c462"
}